:100000000200813200000000000000320000000009
:10001000000000320000000000000032000000007C
:10002000000000320000000000000032000000006C
:100030000000003200000000000000020248000042
:10004000000000320000000000000032000000004C
:10005000000000320000000000000032000000003C
:10006000000000320000000000000032000000002C
:1000700000000032000000000000000201A5021094
:01008000433C
:0100210000DE
:0300810075812C5A
:0A008400121999E582600302007E64
:10008E007935E94400601B7A019019D1785A75A030
:10009E0000E493F2A308B8000205A0D9F4DAF275D1
:0200AE00A0FFB1
:1000B000E478FFF6D8FD7800E84400600A7901751D
:1000C000A000E4F309D8FC7859E84400600C7901F9
:0A00D000900001E4F0A3D8FCD9FA77
:0300DA0002007EA3
:1000DD00AF82AE83ADF0FC900005EFF0EEA3F0ED36
:1000ED00A3F0ECA3F0538EF75389F04389019000F0
:1000FD0005E0FCA3E0FDA3E0FEA3E0FF900040744B
:10010D0040F07442A3F0740FA3F0E4A3F08C828D41
:10011D00838EF0EF121725AC82AD83AEF0FF900009
:10012D0003E0FAA3E0FB90004DEAF0EBA3F0E4A3AB
:10013D00F0A3F08C828D838EF0EF121819AC82AD86
:10014D0083AEF0FF900040740CF0E4A3F0A3F0A395
:10015D00F08C828D838EF0EF121725AC82AD83AEBD
:10016D00F0FF8C0374FFC39BFB74FFC39C74FF9D56
:10017D00FDE49EE49F8D07900001E0FDA3E0FEED00
:10018D004E60148B8A8F8CD28C108D0280FBC28CAA
:10019D001DBDFF011E80E822C021C0E0C0F0C0825D
:1001AD00C083C007C006C005C004C003C002C001A3
:1001BD00C000C0D075D000C09130F83790007AE003
:1001CD002409F582E43400F583E59AF090007AE095
:1001DD00FF7E000FBF00010E9000517410F0E4A3DC
:1001ED00F08F828E83121885AE82AF8390007AEEE7
:1001FD00F0C2F810F9028000D091D0D0D000D0011B
:10020D00D002D003D004D005D006D007D083D08241
:10021D00D0F0D0E0D021329000337402F090003451
:10022D007480F07425A3F0E4A3F0A3F0903600756C
:10023D00F06E74011214A5439C0122C0E0C0F0C001
:10024D0082C083C09190007DE0F5F0A3E042F0A361
:10025D00E042F0A3E045F0700D90007D7401F0E4F4
:10026D00A3F0A3F0A3F053ECFBD091D083D082D0B8
:10027D00F0D0E03243B10453B2FBD28275E90043B2
:10028D00E91043EA0443EB04439B022253B3BF43FB
:10029D00B440C2962253B3BF43B440D296229000CD
:1002AD0065E4F090006EF0A3F0A3F0A3F07E007F64
:1002BD0000C3EE9402EF648094805025EE2EFCEF87
:1002CD0033FDEC2CFCED33FDEC2466F582ED3400B2
:1002DD00F583E4F0A3F0A3F0A3F00EBE00D30F80DE
:1002ED00D090005C7401F022D2AF43E13043E20EB6
:1002FD0043B14053B2BF538EBF53DFF885DFDF43A9
:10030D00DE1053B1FD43B202A2AF9200C2AF75C76A
:10031D00AA75C755759101A20092AF43C604A2AF4D
:10032D009200C2AF75C7AA75C755759100A200920C
:10033D00AF53B1DF43B220C2DFA2AF9200C2AF759F
:10034D00C7AA75C755759101A20092AF75D10075F9
:10035D00D9FF75DC0075D40075CC0075C400A2AF53
:10036D009200C2AF75C7AA75C755759100A20092CC
:10037D00AFD2DF900063E4F0900064F012029912A6
:10038D0002AB90005DE4F0A3F022A2AF9200C2AFE9
:10039D0075C7AA75C755759100A20092AF53E1FEBE
:1003AD0053E8F043E80643B10853B2F775F600433E
:1003BD00F640A2AF9200C2AF75C7AA75C755759129
:1003CD0000A20092AF43E101A2AF9200C2AF75C788
:1003DD00AA75C755759100A20092AFC2EFA2AF9258
:1003ED0000C2AF75C7AA75C755759100A20092AF2F
:1003FD00D2EE30EFFDAEC3E4C454F0CEC4CE6ECE1B
:10040D0054F0CE6EFFACC253040F7D00EE4204EFEC
:10041D004205900072ECF0EDA3F0A2AF9200C2AFD6
:10042D0075C7AA75C755759100A20092AF53E1FE2D
:10043D00A2AF9200C2AF75C7AA75C755759100A23C
:10044D000092AF53E1FE53E8F043E80543B110537A
:10045D00B2EF75F60043F620A2AF9200C2AF75C79A
:10046D00AA75C755759100A20092AF43E101A2AFE5
:10047D009200C2AF75C7AA75C755759100A20092BB
:10048D00AFC2EFA2AF9200C2AF75C7AA75C75575BF
:10049D009100A20092AFD2EE30EFFDAEC3E4C45492
:1004AD00F0CEC4CE6ECE54F0CE6EFFACC253040F60
:1004BD007D00EE4204EF4205900074ECF0EDA3F0E8
:1004CD00A2AF9200C2AF75C7AA75C755759100A2AC
:1004DD000092AF53E1FE22A2AF9200C2AF75C7AA40
:1004ED0075C755759100A20092AF53E1FE53E8F028
:1004FD0043E80343B14053B2BF75F60043F608A27B
:10050D00AF9200C2AF75C7AA75C755759100A2000D
:10051D0092AF43E101A2AF9200C2AF75C7AA75C7F2
:10052D0055759100A20092AFC2EFA2AF9200C2AF7B
:10053D0075C7AA75C755759100A20092AFD2EE305E
:10054D00EFFDAEC3E4C454F0CEC4CE6ECE54F0CEA7
:10055D006EFFACC253040F7D00EE4204EF420590D6
:10056D00006EE0FAA3E0FBA3E0FEA3E0FF8C008D9C
:10057D00017C007D0090006EE82AF0E93BA3F0ECD1
:10058D003EA3F0ED3FA3F0A2AF9200C2AF75C7AA94
:10059D0075C755759100A20092AF53E1FE22E58219
:1005AD00900019F0E0FFC2D575F002EF30E704B20C
:1005BD00D5F404A430D50AF42401C5F0F43400C5F3
:1005CD00F0249DFE741935F0FF8E828F83E49360C5
:1005DD00067E017F0080047E007F008E8222E582F0
:1005ED0090001AF0900065E0FFE0603C90001AE08A
:1005FD0075F004A42466F582740035F0F583E0FBF4
:10060D00A3E0FCA3E0FDA3E0FE900040EFF0E4A327
:10061D00F0A3F0A3F08B828C838DF0EE121725AC36
:10062D0082AD83AEF0FF801A90001AE075F002A43F
:10063D002472F582740035F0F583E0FEA3E08E821E
:10064D00F58322E58290001CF0E0FF24BDFDE4342B
:10065D0019FE8D828E83E493700302074C90007611
:10066D00E0FDA3E0FE8D038E04C374809B740C9C8F
:10067D00400302074CC374169B740D9C5023EF75F9
:10068D00F002A4249DFB741935F0FC90001BE0FAD8
:10069D002BF582E43CF583E493C313FCF58202074A
:1006AD006CEF75F002A4249DFC741935F0FF9000D9
:1006BD001BE02CF582E43FF583E493FFE4FCFBFAA9
:1006CD007416C39DFD740D9EFE90004DEDF0EEA3CE
:1006DD00F0E4A3F0A3F08F828C838BF0EAC007C007
:1006ED0004C003C002121819A882A983ADF0FE90B0
:1006FD0000407496F0E4A3F0A3F0A3F08882898300
:10070D008DF0EE121725A882A983D002D003D00454
:10071D00D007ECC313CF13CFFC8805E9C313CD135A
:10072D00CDC313CD13CDFEED2FFFE9C4C8C4540FB7
:10073D0068C8540FC868C8F9E82FFFF5828020906B
:10074D00001CE075F002A4249DFE741935F0FF9095
:10075D00001BE0FD2EF582E43FF583E493F5822244
:10076D00E58290001DF0E0FF90005AE0FEEFB50627
:10077D0003020909EF24F65003020909EF24C7FD0E
:10078D00E43419FE8D828E83E49370030209097D92
:10079D00007E00C3ED9402EE648094804003020855
:1007AD006690001BEDF08F82C007C006C0051206D3
:1007BD0050AC82D005D006D0078C027B00EC7027A0
:1007CD00ED2DF9EE33FCE9245FF582EC3400F58371
:1007DD00E0F9A3E0FC49600FED2463F582EE3400EF
:1007ED00F5837401F0806A8D048C82C007C006C049
:1007FD0005C004C003C0021205EBA882A983D00274
:10080D00D003D004D005D006D007C3E89AE99B5099
:10081D000FED2463F582EE3400F5837402F0803120
:10082D008C82C007C006C005C003C0021205EBA92B
:10083D0082AC83D002D003D005D006D007C3EA998D
:10084D00EB9C500DED2463F582EE3400F5837403BB
:10085D00F00DBD00010E0207A01202AB7E007F005D
:10086D00C3EE9402EF648094805013EE2478F582E9
:10087D00EF3400F583E4F00EBE00E50F80E290004A
:10088D005AE0607090001DE0FFE06068EF75F002C7
:10089D00A4FEAFF07C007D00C3EC9402ED64809467
:1008AD0080505190005AE075F002A4249DFA7419FD
:1008BD0035F0FBEC2AFAED3BFB8A828B83E49370D7
:1008CD002CEE249DFAEF3419FBEC2AFAED3BFB8A52
:1008DD00828B83E4936016EC2CFAED33FBEA245FF4
:1008ED00F582EB3400F583743CF0E4A3F00CBC000E
:1008FD00A70D80A490001DE090005AF02290005AA0
:10090D00E09019C793F58212076D2290007CE0FFED
:10091D00C374808FF063F08095F0500690007C7466
:10092D00FFF090007AE0FF90007BE0FEEFB506034C
:10093D00020A62EE2409F582E43400F583E09000AA
:10094D001EF07F000EBE00010F9000517410F0E4F8
:10095D00A3F08E828F83121885AE8290007BEEF00D
:10096D00900085E4F0A3F0A3F0A3F090001EE0FF4B
:10097D00BF0A028045BF3002806EBF3103020A25D7
:10098D00BF3203020A25BF3303020A25BF34030217
:10099D000A25BF3503020A25BF3603020A25BF39D2
:1009AD0002805FBF6102801ABF6902801EBF7302A1
:1009BD008022BF7502802602092F900089E4F00283
:1009CD00092F9000897401F002092F90008974039A
:1009DD00F002092F9000897402F002092F90005B3C
:1009ED007401F07582018070900089E0FFBF0102F3
:1009FD00800302092F9019C7E493F58212076D0247
:100A0D00092F900089E0FFBF0102800302092F75B5
:100A1D00820012076D02092F90008AE4F090008980
:100A2D00E0FFBF02028016BF0302800302092F9070
:100A3D00001EE024D0F58212076D02092F90001ED2
:100A4D00E0FFBF3400400302092F74D62FF5821248
:100A5D00076D02092F7582002220825C90007DE0D7
:100A6D002401F0A3E03400F0A3E03400F0A3E0345F
:100A7D0000F0900081E4F0A3F0A3F0A3F090007DCE
:100A8D00E0FCA3E0FDA3E0FEA3E0FFBC900BBD01E5
:100A9D0008BE0005BF00028003020B4490005AE01F
:100AAD00600975820012076D020B449019C7E4931B
:100ABD00F58212076D020B4490007DE0FCA3E0FD72
:100ACD00A3E0FEA3E0FF90007DE0F5F0A3E042F08F
:100ADD00A3E042F0A3E045F0605D900081E02401C9
:100AED00F0A3E03400F0A3E03400F0A3E03400F014
:100AFD00900081E0F8A3E0F9A3E0FAA3E0FBC37452
:100B0D000198E499E49AE49B502DC3EC9490ED94F4
:100B1D0001EE9400EF9400500990005AE06003122A
:100B2D00090A900081E4F0A3F0A3F0A3F090007DFA
:100B3D00F0A3F0A3F0A3F022C2DFA2AF9200C2AFE8
:100B4D0075C7AA75C755759101A20092AF75DC00E6
:100B5D0075D40075CC0075C400A2AF9200C2AF75FC
:100B6D00C7AA75C755759100A20092AFD2DF22C2F8
:100B7D00DFA2AF9200C2AF75C7AA75C755759101B7
:100B8D00A20092AF90005FE0F5DC900061E0F5CC43
:100B9D00A2AF9200C2AF75C7AA75C755759100A2D5
:100BAD000092AFD2DF2290001FE4F07E007F00C3E1
:100BBD00EE9402EF648094804003020DC9EE24632D
:100BCD00FCEF3400FD8C828D83E0FBBB0102800EB7
:100BDD00BB02028063BB0303020D01020DC1EE2EA9
:100BED00FAEF33FBEA245FFAEB3400FB8A828B8346
:100BFD00E0F8A3E0F9486022C006C00790001F741A
:100C0D0001F0E824FFFEE934FFFF8A828B83EEF0CA
:100C1D00EFA3F0D007D006020DC1E84970098C8210
:100C2D008D83E4F0020DC190001F7401F08A828B58
:100C3D0083E4F0A3F0020DC1C004C005EE2EFAEF5F
:100C4D0033FBEA2472F582EB3400F583E0F8A3E080
:100C5D00F990005AE075F002A4249DFC741935F04A
:100C6D00FDEE2CF582EF3DF583E493FD7C00C3E8AA
:100C7D009DE99CD005D0045055EE2478F582EF34D3
:100C8D0000F583E4F090001F04F0EA245FFAEB34E2
:100C9D0000FB8A828B83E0F8A3E0F9C006C00788C9
:100CAD00068907C3EE94BEEF9400D007D00650110D
:100CBD0008B80001098A828B83E8F0E9A3F0020DE0
:100CCD00C18A828B8374BEF0E4A3F0020DC1EE24C1
:100CDD0078FAEF3400FB8A828B83E0F9098A828BE4
:100CED0083E9F0E924F54003020DC18C828D83E484
:100CFD00F0020DC1C004C005EE2EFAEF33FBEA245D
:100D0D0072F582EB3400F583E0F8A3E0F990005A18
:100D1D00E075F002A4249DFC741935F0FDEE2CF560
:100D2D0082EF3DF583E493FD7C00C3ED98EC99D003
:100D3D0005D004505FEE2478F582EF3400F583E49E
:100D4D00F090001F04F0EA245FFAEB3400FB8A8276
:100D5D008B83E0F8A3E0F948700A8A828B83E4F074
:100D6D00A3F08050C002C00388028903C374BE9AE9
:100D7D00E49BD003D002500C8A828B8374BEF0E4C6
:100D8D00A3F0803018B8FF01198A828B83E8F0E94F
:100D9D00A3F08020EE2478FAEF3400FB8A828B8357
:100DAD00E0F9098A828B83E9F0E924FD50068C82F3
:100DBD008D83E4F00EBE00010F020BBC90001FE00E
:100DCD00F582227E007F00C3EE9402EF6480948052
:100DDD00501BEE2463FCEF3400FD8C828D83E060AC
:100DED0005758200800A0EBE00DD0F80DA75820166
:100DFD0022900020E4F0900065E0FF90006EE0FB93
:100E0D00A3E0FCA3E0FDA3E0FE900040EFF0E4A31F
:100E1D00F0A3F0A3F08B828C838DF0EE121725AC2E
:100E2D0082AD83900076ECF0EDA3F07E007F00C3E1
:100E3D00EE9402EF648094804003020F1A90005AE2
:100E4D00E0FD8E0490001BECF08D82C007C006C043
:100E5D0004120650AD82D004D006D0077B00C3E447
:100E6D009D74808BF063F08095F04003020F128C1F
:100E7D0082C007C006C005C0031205EBAA82AC8371
:100E8D00D003D005D006D007ED24FEF8EB34FFF9E2
:100E9D00C3EA98EC995035EE2EF8EF33F9E8245F5C
:100EAD00F8E93400F9C006C00788828983E0FEA303
:100EBD00E0FF0EBE00010F88828983EEF0EFA3F0F4
:100ECD009000207401F0D007D006803974022DFDFA
:100EDD00E43BFBC3ED9AEB9C502BEE2EFCEF33FD68
:100EED00EC245FFCED3400FD8C828D83E0FAA3E0F1
:100EFD00FB1ABAFF011B8C828D83EAF0EBA3F090F5
:100F0D0000207401F00EBE00010F020E3C90002077
:100F1D00E0F58222120397120BB3E582900021F0C7
:100F2D00120DD0E5827003021008900065E02401D7
:100F3D00F07E007F00C3EE9402EF648094805069D0
:100F4D00EE2EFCEF33FDEC2CFCED33FDEC2466FCBA
:100F5D00ED3400FD8C828D83E0F522A3E0F523A313
:100F6D00E0F524A3E0F525EE2EFAEF33FBEA24722B
:100F7D00F582EB3400F583E0FAA3E0FB8A008B01E8
:100F8D00E4FAFBE82522F8E93523F9EA3524FAEBF2
:100F9D003525FB8C828D83E8F0E9A3F0EAA3F0EB15
:100FAD00A3F00EBE008F0F808C1204E490005AE067
:100FBD0024B3FFE43419FE8F828E83E49360139083
:100FCD000065E0FFBF0105120B458006BF870312C8
:100FDD000B7C900065E0FFBF9600401F90005AE02B
:100FED0024B3FFE43419FE8F828E83E493700912CB
:100FFD000DFEE582900021F01202AB900021E06021
:10100D0003120B7C22759100A2AF9200C2AF75C77F
:10101D00AA75C75553AAF843AA97A20092AF439B4E
:10102D001022A2AF9200C2AF75C7AA75C75543AAC9
:10103D0040A20092AF227582061212191202F51209
:10104D000224900085E4F0A3F0A3F0A3F012091898
:10105D00E58270519000017401F0E4A3F09000035B
:10106D0074E8F07403A3F090360075F06E740112FD
:10107D0000DD900085E02401F0A3E03400F0A3E052
:10108D003400F0A3E03400F0900085E0FCA3E0FD17
:10109D00A3E0FEA3E0FFC3EC94F4ED9401EE940005
:1010AD00EF940040A890005BE070031202811210D3
:1010BD001290005BE0602190005AE0701690008560
:1010CD00E02401F0A3E03400F0A3E03400F0A3E04D
:1010DD003400F01209188003120A6690005AE0706D
:1010ED006790005BE0601B900085E0FCA3E0FDA332
:1010FD00E0FEA3E0FFC374889C74139DE49EE49FFF
:10110D00402390005BE0704090007DE0FCA3E0FD8B
:10111D00A3E0FEA3E0FFC3EC9401ED9400EE940078
:10112D00EF94005023120B451202A2C2F9C2F843EC
:10113D00870100005387FE1202F590005BE0600509
:10114D001202248003120281120F219000017401FA
:10115D00F0E4A3F090000374E8F07403A3F090366C
:10116D000075F06E74011200DD12102F0210BE22F8
:10117D00AF83E582900022F0EFA3F0900022E0FE15
:10118D00A3E0FF8E828F83E493A3E493F58222E59F
:10119D0082900024F0E04480FF75C7AA75C7558F73
:1011AD009F22E582900025F0E06005438702000054
:1011BD0022E582900026F0E06005438701000022C1
:1011CD007F007E7F00DEFD0FBF1A0040F522E58215
:1011DD00900027F0E024FF92AF22AF83E5829000CC
:1011ED0028F0EFA3F010990280FB900028E0FEA3F9
:1011FD00E08E997F008E828F83223098FD90002A99
:10120D00E599F0C29890002AE0F58222E5829000DF
:10121D002BF0A2AF9200C2AF75C7AA75C755439FF9
:10122D0001A20092AF75910090002BE0FFBF060266
:10123D00800ABF0702800ABF080F800A75A6388092
:10124D000875A630800375A63075A70075AF04A28A
:10125D00AF9200C2AF75C7AA75C75543A401A200CE
:10126D0092AFAEAEE5A604F5A6A2AF9200C2AF75E1
:10127D00C7AA75C75543A401A20092AFADAEBF0872
:10128D0002800302131B8E07EF2FFF8D0474015C88
:10129D002FFF74C05FFC743F5FFBEF24F2FF9000E3
:1012AD002CF075AF0C75A60175A700A2AFC2AFA249
:1012BD00AF9200C2AF75C7AA75C75543AA40A20029
:1012CD0092AF75C7AA75C75543A401A20092AF741A
:1012DD004BB5AE02800C7452B5AE0280057453B599
:1012ED00AE24BB0F005018BC40028008BC800280A9
:1012FD0003BCC0128F04EC24F290002CF08007EF99
:10130D0024FC90002CF090002CE0FFC313FE75C759
:10131D00AA75C7558E8475C7AA75C7558D85A2AF99
:10132D009200C2AF75C7AA75C755539FFEA2009212
:10133D00AF22E58290002DF0E0FFBF0202800ABFD0
:10134D0003028013BF045680297582021213AB75F8
:10135D00820212141A804675820312141AA2AF92D9
:10136D0000C2AF75C7AA75C7555397DFA20092AFDC
:10137D00802B7582021213AB75820212141A7582BC
:10138D00041213AB75820412141AA2AF9200C2AFED
:10139D0075C7AA75C7555397DFA20092AF22E58294
:1013AD0090002EF0E0FFBF02028005BF042A801AD4
:1013BD00A2AF9200C2AF75C7AA75C755439720A2B9
:1013CD000092AFE59620E51080F975C7AA75C7554F
:1013DD004397C0E59630E3FB22E58290002FF07530
:1013ED009100E0FFBF02028005BF04208015A2AF6F
:1013FD009200C2AF75C7AA75C7555397DFA2009269
:10140D00AF800975C7AA75C75553973F22E58290DE
:10141D000030F0759100A2AF9200C2AF900030E0A5
:10142D00FFBF0202800ABF0302802DBF04658050FA
:10143D00A2AF9200C2AF75C7AA75C7555396FBA24E
:10144D000092AFA2AF9200C2AF75C7AA75C7555330
:10145D0096FDA20092AF803BA2AF9200C2AF75C7BE
:10146D00AA75C755439604A20092AFA2AF9200C2CF
:10147D00AF75C7AA75C7555396FDA20092AF8013DD
:10148D00A2AF9200C2AF75C7AA75C755439608A201
:10149D000092AFA20092AF22AF82AE83ADF0FC906E
:1014AD000038EFF0EEA3F0EDA3F0ECA3F0900033D5
:1014BD00E0FF600FBF0103021559BF0203021604BE
:1014CD00021693759850438920438780438E10A24E
:1014DD00AF9200C2AF75C7AA75C755759100A2002E
:1014ED0092AF53C4DF900038E0FCA3E0FDA3E0FE13
:1014FD00A3E0FFEDC4CCC4540F6CCC540FCC6CCC1A
:10150D00FDEEC454F04DFDEFC4CEC4540F6ECE5459
:10151D000FCE6ECEFF900034E0F8A3E0F9A3E0FA11
:10152D00A3E0FB900040E8F0E9A3F0EAA3F0EBA301
:10153D00F08C828D838EF0EF121725AC82AD83AEC9
:10154D00F0FFC3E49CF58DD28E021693759850432F
:10155D00878053C4F8A2AF9200C2AF75C7AA75C7F2
:10156D0055759100A20092AF43C420900038E0FC65
:10157D00A3E0FDA3E0FEA3E0FFEDC4CCC4540F6CCB
:10158D00CC540FCC6CCCFDEEC454F04DFDEFC4CE5D
:10159D00C4540F6ECE540FCE6ECEFF900034E0F8D3
:1015AD00A3E0F9A3E0FAA3E0FB900040E8F0E9A383
:1015BD00F0EAA3F0EBA3F08C828D838EF0EF12177F
:1015CD0025AC82AD83AEF0FFE4C39CF8E49DF974C5
:1015DD00019EFAE49FFB89C6C3E49CFC8CC5A2AFB7
:1015ED009200C2AF75C7AA75C755759100A200923A
:1015FD00AF43C40802169375F85075C48090003837
:10160D00E0FCA3E0FDA3E0FEA3E0FFEDC4CCC454D9
:10161D000F6CCC540FCC6CCCFDEEC454F04DFDEFE3
:10162D00C4CEC4540F6ECE540FCE6ECEFF90003488
:10163D00E0F8A3E0F9A3E0FAA3E0FB900040E8F0A6
:10164D00E9A3F0EAA3F0EBA3F08C828D838EF0EF8B
:10165D00121725AC82AD83AEF0FFE4C39CF8E49D78
:10166D00F974019EFAE49FFB89C6C3E49CFC8CC50A
:10167D00A2AF9200C2AF75C7AA75C755759100A2EA
:10168D000092AF43C40822E58290003CF090003DEB
:10169D00E4F090003CE0FF6005BF011A800D30982A
:1016AD00FD90003DE599F0C298800B30F8FD90005B
:1016BD003DE59AF0C2F890003DE0F58222E582907A
:1016CD00003FF0539CFE90003FE0FF6005BF011806
:1016DD00800B90003EE0F59910990D80FB90003E37
:1016ED00E0F59A10F90280FB439C012253B1BF53E0
:1016FD00B2BF900033E4F0900034F074C2A3F074E4
:10170D0001A3F0E4A3F090360075F06E740112148D
:10171D00A5D299D201C2AC22AF82AE83ADF0FC90BE
:10172D000044EFF0EEA3F0EDA3F0ECA3F090004831
:10173D00E4F0A3F0A3F0A3F0900040E0FCA3E0FDE3
:10174D00A3E0FEA3E0FF7B20C003900044E0F8A3DC
:10175D00E0F9A3E0FAA3E0FB90004C235401F0E87C
:10176D0028F8E933F9EA33FAEB33FB900044E8F05B
:10177D00E9A3F0EAA3F0EBA3F0900048E0F8A3E0B2
:10178D00F9A3E0FAA3E0FBE828F8E933F9EA33FA24
:10179D00EB33FB900048E8F0E9A3F0EAA3F0EBA3EC
:1017AD00F0D00390004CE06008900048E043E00169
:1017BD00F0900048E0F529A3E0F52AA3E0F52BA36E
:1017CD00E0F52CC3E5299CE52A9DE52B9EE52C9F94
:1017DD00401F900048E529C39CF0E52A9DA3F0E544
:1017ED002B9EA3F0E52C9FA3F0900044E043E00175
:1017FD00F01BEB6003021755900044E0FCA3E0FDE5
:10180D00A3E0FEA3E08C828D838EF022A882A983B3
:10181D00AAF0FB88F090004DE0A4FCADF089F0E05B
:10182D00A42DFDE435F0FE88F0A3E0A42DFDE5F038
:10183D003EFEE433FF89F0E0A42EFEE5F03FFF8885
:10184D00F0A3E0A42EFEE5F03FFF8AF090004DE0FE
:10185D00A42EFEE5F03FFF8BF0E0A42FFF8AF0A34E
:10186D00E0A42FFF89F0A3E0A42FFF88F0A3E0A44C
:10187D002F8EF08D838C8222AF83E582900053F002
:10188D00EFA3F0900053E0FEA3E0FF30E709C3E4BF
:10189D009EFCE49FFD80048E048F05900051E0FEB8
:1018AD00A3E0FF30E709C3E49EFAE49FFB80048EBA
:1018BD00028F03900055EAF0EBA3F08C828D83121A
:1018CD0018EDAE82AF83900053E0A3E030E70CC378
:1018DD00E49EFCE49FFD8C828D83228E828F832279
:1018ED00AF83E582900057F0EFA3F0900059E4F03C
:1018FD00900057E0FEA3E0FF7D00900055E0FBA3B4
:10190D00E0FC235401FA7036EB2BFBEC33FC90001A
:10191D0055EBF0ECA3F0900055E0FBA3E0FCC3EE1B
:10192D009BEF9C5011ECC313CB13CBFC900055EBEC
:10193D00F0ECA3F080080D900059EDF080BC900004
:10194D0059E0FF900057E0FDA3E0FE900055E0FB4D
:10195D00A3E0FCC3ED9BEE9C400B900057EDC39BA9
:10196D00F0EE9CA3F0900055E0FDA3E0C313CD1362
:10197D00CDFE900055EDF0EEA3F08F061FEE70C377
:10198D00900057E0FEA3E08E82F58322758200223F
:10199D0000000087365A5A0036000000002D0087DF
:1019AD00002D2D002D2D0000000101000100000073
:1019BD00000101000000000100010108010101000A
:0419CD000901060204
:1019D1000000010000000000000000000000000005
:1019E10000000000000000000000000000000000F6
:1019F10000000000000000000000000000000000E6
:051A01000000000000E0
:04000003000000DA1F
:00000001FF
