:100000000200813200000000000000320000000009
:10001000000000320000000000000032000000007C
:10002000000000320000000000000032000000006C
:10003000000000320000000000000002018000000B
:10004000000000320000000000000032000000004C
:10005000000000320000000000000032000000003C
:10006000000000320000000000000032000000002C
:1000700000000032000000000000000200DD020F5E
:010080004A35
:0100210000DE
:0300810075813452
:0A008400121E94E582600302007E64
:10008E007935E94400601B7A01901ECC787C75A00E
:10009E0000E493F2A308B8000205A0D9F4DAF275D1
:0200AE00A0FFB1
:1000B000E478FFF6D8FD7800E84400600A7901751D
:1000C000A000E4F309D8FC787BE84400600C7901D7
:0A00D000900001E4F0A3D8FCD9FA77
:0300DA0002007EA3
:1000DD00C021C0E0C0F0C082C083C007C006C0050B
:1000ED00C004C003C002C001C000C0D075D000C0A4
:1000FD009130F83790009CE02401F582E43400F54E
:10010D0083E59AF090009CE0FF7E000FBF00010E8A
:10011D0090006F7410F0E4A3F08F828E83121D1483
:10012D00AE82AF8390009CEEF0C2F810F902800011
:10013D00D091D0D0D000D001D002D003D004D005C2
:10014D00D006D007D083D082D0F0D0E0D02132902D
:10015D0000527402F09000537480F07425A3F0E403
:10016D00A3F0A3F090360075F06E740112184F4392
:10017D009C0122C0E0C0F0C082C083C09190009F5E
:10018D00E0F5F0A3E042F0A3E042F0A3E045F0700B
:10019D000D90009F7401F0E4A3F0A3F0A3F053ECD5
:1001AD00FBD091D083D082D0F0D0E03243B1045354
:1001BD00B2FBD28275E90043E91043EA0443EB0434
:1001CD00439B022253B3BF43B440C2962253B3BFE5
:1001DD0043B440D29622900087E4F0900090F0A3B3
:1001ED00F0A3F0A3F07E007F00C3EE9402EF6480D5
:1001FD0094805025EE2EFCEF33FDEC2CFCED33FD01
:10020D00EC2488F582ED3400F583E4F0A3F0A3F03F
:10021D00A3F00EBE00D30F80D090007E7401F022AB
:10022D00D2AF43E13043E20E43B14053B2BF538EE0
:10023D00BF53DFF885DFDF43DE1053B1FD43B2025C
:10024D00A2AF9200C2AF75C7AA75C755759101A22D
:10025D000092AF43C604A2AF9200C2AF75C7AA7594
:10026D00C755759100A20092AF53B1DF43B220C2C2
:10027D00DFA2AF9200C2AF75C7AA75C755759101C0
:10028D00A20092AF75D10075D9FF75DC0075D40051
:10029D0075CC0075C400A2AF9200C2AF75C7AA7528
:1002AD00C755759100A20092AFD2DF900085E4F0A2
:1002BD00900086F01201D11201E390007FE4F0A3CB
:1002CD00F022A2AF9200C2AF75C7AA75C75575913E
:1002DD0000A20092AF53E1FE53E8F043E80643B1AC
:1002ED000853B2F775F60043F640A2AF9200C2AFC5
:1002FD0075C7AA75C755759100A20092AF43E1016C
:10030D00A2AF9200C2AF75C7AA75C755759100A26D
:10031D000092AFC2EFA2AF9200C2AF75C7AA75C768
:10032D0055759100A20092AFD2EE30EFFDAEC3E451
:10033D00C454F0CEC4CE6ECE54F0CE6EFFACC253CC
:10034D00040F7D00EE4204EF4205900094ECF0EDB9
:10035D00A3F0A2AF9200C2AF75C7AA75C75575912C
:10036D0000A20092AF53E1FEA2AF9200C2AF75C7DB
:10037D00AA75C755759100A20092AF53E1FE53E8DF
:10038D00F043E80543B11053B2EF75F60043F62084
:10039D00A2AF9200C2AF75C7AA75C755759100A2DD
:1003AD000092AF43E101A2AF9200C2AF75C7AA752B
:1003BD00C755759100A20092AFC2EFA2AF9200C2D5
:1003CD00AF75C7AA75C755759100A20092AFD2EE51
:1003DD0030EFFDAEC3E4C454F0CEC4CE6ECE54F0B7
:1003ED00CE6EFFACC253040F7D00EE4204EF42050A
:1003FD00900096ECF0EDA3F0A2AF9200C2AF75C7DE
:10040D00AA75C755759100A20092AF53E1FE22A2C5
:10041D00AF9200C2AF75C7AA75C755759100A200FE
:10042D0092AF53E1FE53E8F043E80343B14053B2BA
:10043D00BF75F60043F608A2AF9200C2AF75C7AA0A
:10044D0075C755759100A20092AF43E101A2AF921D
:10045D0000C2AF75C7AA75C755759100A20092AFBE
:10046D00C2EFA2AF9200C2AF75C7AA75C7557591FD
:10047D0000A20092AFD2EE30EFFDAEC3E4C454F053
:10048D00CEC4CE6ECE54F0CE6EFFACC253040F7DF3
:10049D0000EE4204EF4205900090E0FAA3E0FBA3CA
:1004AD00E0FEA3E0FF8C008D017C007D00900090AC
:1004BD00E82AF0E93BA3F0EC3EA3F0ED3FA3F0A258
:1004CD00AF9200C2AF75C7AA75C755759100A2004E
:1004DD0092AF53E1FE22E582900011F0E0FFC2D50C
:1004ED0075F002EF30E704B2D5F404A430D50AF468
:1004FD002401C5F0F43400C5F02498FE741E35F0C7
:10050D00FF8E828F83E49360067E017F0080047EE0
:10051D00007F008E8222E582900012F0900087E02D
:10052D00FFE0603C900012E075F004A42488F58291
:10053D00740035F0F583E0FBA3E0FCA3E0FDA3E040
:10054D00FE900062EFF0E4A3F0A3F0A3F08B828C99
:10055D00838DF0EE121C20AC82AD83AEF0FF801ABD
:10056D00900012E075F002A42494F582740035F029
:10057D00F583E0FEA3E08E82F58322E582900014E0
:10058D00F0E0FF24B8FDE4341EFE8D828E83E493EB
:10059D007003020684900098E0FDA3E0FE8D038EAB
:1005AD0004C374809B740C9C4003020684C37416B0
:1005BD009B740D9C5023EF75F002A42498FB741EC0
:1005CD0035F0FC900013E0FA2BF582E43CF583E462
:1005DD0093C313FCF5820206A4EF75F002A42498D0
:1005ED00FC741E35F0FF900013E02CF582E43FF50E
:1005FD0083E493FFE4FCFBFA7416C39DFD740D9E1A
:10060D00FE900073EDF0EEA3F0E4A3F0A3F08F8263
:10061D008C838BF0EAC007C004C003C002121D7C9E
:10062D00A882A983ADF0FE9000627496F0E4A3F069
:10063D00A3F0A3F0888289838DF0EE121C20A8828E
:10064D00A983D002D003D004D007ECC313CF13CFAE
:10065D00FC8805E9C313CD13CDC313CD13CDFEED2A
:10066D002FFFE9C4C8C4540F68C8540FC868C8F92F
:10067D00E82FFFF5828020900014E075F002A4248D
:10068D0098FE741E35F0FF900013E0FD2EF582E408
:10069D003FF583E493F58222E582900015F0E0FFAB
:1006AD0090007CE0FEEFB50603020841EF24F65002
:1006BD0003020841EF24C2FDE4341EFE8D828E83B9
:1006CD00E49370030208417D007E00C3ED9402EEB9
:1006DD0064809480400302079E900013EDF08F829A
:1006ED00C007C006C005120588AC82D005D006D063
:1006FD00078C027B00EC7027ED2DF9EE33FCE9241D
:10070D0081F582EC3400F583E0F9A3E0FC49600F3C
:10071D00ED2485F582EE3400F5837401F0806A8D49
:10072D00048C82C007C006C005C004C003C00212FD
:10073D000523A882A983D002D003D004D005D0060A
:10074D00D007C3E89AE99B500FED2485F582EE346E
:10075D0000F5837402F080318C82C007C006C0059D
:10076D00C003C002120523A982AC83D002D003D0EE
:10077D0005D006D007C3EA99EB9C500DED2485F505
:10078D0082EE3400F5837403F00DBD00010E0206F8
:10079D00D81201E37E007F00C3EE9402EF648094D3
:1007AD00805013EE249AF582EF3400F583E4F00EB9
:1007BD00BE00E50F80E290007CE06070900015E0D7
:1007CD00FFE06068EF75F002A4FEAFF07C007D00E5
:1007DD00C3EC9402ED64809480505190007CE075E0
:1007ED00F002A42498FA741E35F0FBEC2AFAED3BC6
:1007FD00FB8A828B83E493702CEE2498FAEF341EDF
:10080D00FBEC2AFAED3BFB8A828B83E4936016ECBA
:10081D002CFAED33FBEA2481F582EB3400F5837479
:10082D003CF0E4A3F00CBC00A70D80A4900015E0F3
:10083D0090007CF02290007CE0901EC293F5821215
:10084D0006A52290009EE0FFC374808FF063F080B8
:10085D0095F0500690009E74FFF090009CE0FF9084
:10086D00009DE0FEEFB5060302099AEE2401F58224
:10087D00E43400F583E0900016F07F000EBE000119
:10088D000F90006F7410F0E4A3F08E828F83121D11
:10089D0014AE8290009DEEF09000A7E4F0A3F0A3BB
:1008AD00F0A3F0900016E0FFBF0A028045BF3002B2
:1008BD00806EBF310302095DBF320302095DBF3394
:1008CD000302095DBF340302095DBF350302095DF3
:1008DD00BF360302095DBF3902805FBF6102801A16
:1008ED00BF6902801EBF73028022BF75028026027F
:1008FD0008679000ABE4F00208679000AB7401F05C
:10090D000208679000AB7403F00208679000AB74A7
:10091D0002F002086790007D7401F075820180700D
:10092D009000ABE0FFBF01028003020867901EC27A
:10093D00E493F5821206A50208679000ABE0FFBFB5
:10094D00010280030208677582001206A50208677E
:10095D009000ACE4F09000ABE0FFBF02028016BF48
:10096D0003028003020867900016E024D0F582127E
:10097D0006A5020867900016E0FFBF340040030291
:10098D00086774D62FF5821206A5020867758200D6
:10099D002220825C90009FE02401F0A3E03400F05F
:1009AD00A3E03400F0A3E03400F09000A3E4F0A342
:1009BD00F0A3F0A3F090009FE0FCA3E0FDA3E0FE08
:1009CD00A3E0FFBC900BBD0108BE0005BF00028077
:1009DD0003020A7C90007CE060097582001206A576
:1009ED00020A7C901EC2E493F5821206A5020A7CCF
:1009FD0090009FE0FCA3E0FDA3E0FEA3E0FF9000CC
:100A0D009FE0F5F0A3E042F0A3E042F0A3E045F053
:100A1D00605D9000A3E02401F0A3E03400F0A3E0BA
:100A2D003400F0A3E03400F09000A3E0F8A3E0F967
:100A3D00A3E0FAA3E0FBC3740198E499E49AE49B64
:100A4D00502DC3EC9490ED9401EE9400EF94005072
:100A5D000990007CE060031208429000A3E4F0A32B
:100A6D00F0A3F0A3F090009FF0A3F0A3F0A3F02269
:100A7D00C2DFA2AF9200C2AF75C7AA75C7557591F7
:100A8D0001A20092AF75DC0075D40075CC0075C461
:100A9D0000A2AF9200C2AF75C7AA75C75575910078
:100AAD00A20092AFD2DF22C2DFA2AF9200C2AF7519
:100ABD00C7AA75C755759101A20092AF900081E04C
:100ACD00F5DC900083E0F5CCA2AF9200C2AF75C704
:100ADD00AA75C755759100A20092AFD2DF22900082
:100AED0017E4F07E007F00C3EE9402EF64809480E3
:100AFD004003020D01EE2485FCEF3400FD8C828D48
:100B0D0083E0FBBB0102800EBB02028063BB0303CB
:100B1D00020C39020CF9EE2EFAEF33FBEA2481FABE
:100B2D00EB3400FB8A828B83E0F8A3E0F948602266
:100B3D00C006C0079000177401F0E824FFFEE934E9
:100B4D00FFFF8A828B83EEF0EFA3F0D007D0060271
:100B5D000CF9E84970098C828D83E4F0020CF99050
:100B6D0000177401F08A828B83E4F0A3F0020CF974
:100B7D00C004C005EE2EFAEF33FBEA2494F582EBA8
:100B8D003400F583E0F8A3E0F990007CE075F00205
:100B9D00A42498FC741E35F0FDEE2CF582EF3DF586
:100BAD0083E493FD7C00C3E89DE99CD005D00450FF
:100BBD0055EE249AF582EF3400F583E4F09000179A
:100BCD0004F0EA2481FAEB3400FB8A828B83E0F88F
:100BDD00A3E0F9C006C00788068907C3EE94BEEFEF
:100BED009400D007D006501108B80001098A828BF5
:100BFD0083E8F0E9A3F0020CF98A828B8374BEF0CE
:100C0D00E4A3F0020CF9EE249AFAEF3400FB8A8289
:100C1D008B83E0F9098A828B83E9F0E924FC400398
:100C2D00020CF98C828D83E4F0020CF9C004C0052E
:100C3D00EE2EFAEF33FBEA2494F582EB3400F583C4
:100C4D00E0F8A3E0F990007CE075F002A42498FC94
:100C5D00741E35F0FDEE2CF582EF3DF583E493FD2A
:100C6D007C00C3ED98EC99D005D004505FEE249A2A
:100C7D00F582EF3400F583E4F090001704F0EA24D8
:100C8D0081FAEB3400FB8A828B83E0F8A3E0F9480C
:100C9D00700A8A828B83E4F0A3F08050C002C003F7
:100CAD0088028903C374BE9AE49BD003D002500C12
:100CBD008A828B8374BEF0E4A3F0803018B8FF01F4
:100CCD00198A828B83E8F0E9A3F08020EE249AFA4A
:100CDD00EF3400FB8A828B83E0F9098A828B83E9EA
:100CED00F0E924FC50068C828D83E4F00EBE0001E9
:100CFD000F020AF4900017E0F582227E007F00C3F8
:100D0D00EE9402EF64809480501BEE2485FCEF344A
:100D1D0000FD8C828D83E06005758200800A0EBE19
:100D2D0000DD0F80DA75820122900018E4F090004A
:100D3D0087E0FF900090E0FBA3E0FCA3E0FDA3E0C3
:100D4D00FE900062EFF0E4A3F0A3F0A3F08B828C91
:100D5D00838DF0EE121C20AC82AD83900098ECF0E8
:100D6D00EDA3F07E007F00C3EE9402EF64809480CB
:100D7D004003020E5290007CE0FD8E04900013ECB7
:100D8D00F08D82C007C006C004120588AD82D00464
:100D9D00D006D0077B00C3E49D74808BF063F08098
:100DAD0095F04003020E4A8C82C007C006C005C0F4
:100DBD0003120523AA82AC83D003D005D006D00739
:100DCD00ED24FEF8EB34FFF9C3EA98EC995035EEBB
:100DDD002EF8EF33F9E82481F8E93400F9C006C0A4
:100DED000788828983E0FEA3E0FF0EBE00010F8815
:100DFD00828983EEF0EFA3F09000187401F0D00714
:100E0D00D006803974022DFDE43BFBC3ED9AEB9CBB
:100E1D00502BEE2EFCEF33FDEC2481FCED3400FD68
:100E2D008C828D83E0FAA3E0FB1ABAFF011B8C8242
:100E3D008D83EAF0EBA3F09000187401F00EBE0064
:100E4D00010F020D74900018E0F582221202CF12EC
:100E5D000AEBE582900019F0120D08E5827003028D
:100E6D000F40900087E02401F07E007F00C3EE94D8
:100E7D0002EF648094805069EE2EFCEF33FDEC2C74
:100E8D00FCED33FDEC2488FCED3400FD8C828D836C
:100E9D00E0F522A3E0F523A3E0F524A3E0F525EE8C
:100EAD002EFAEF33FBEA2494F582EB3400F583E060
:100EBD00FAA3E0FB8A008B01E4FAFBE82522F8E9AE
:100ECD003523F9EA3524FAEB3525FB8C828D83E841
:100EDD00F0E9A3F0EAA3F0EBA3F00EBE008F0F80B4
:100EED008C12041C90007CE024AEFFE4341EFE8FB7
:100EFD00828E83E4936013900087E0FFBF0105129B
:100F0D000A7D8006BF8703120AB4900087E0FFBFF9
:100F1D009600401F90007CE024AEFFE4341EFE8F4F
:100F2D00828E83E4937009120D36E582900019F0DC
:100F3D001201E3900019E06003120AB422758206D3
:100F4D001215C312022D12015C9000A7E4F0A3F05C
:100F5D00A3F0A3F0120850E58270519000207401A7
:100F6D00F0E4A3F090002274E8F07403A3F090363F
:100F7D000075F06E74011210F79000A7E02401F0D7
:100F8D00A3E03400F0A3E03400F0A3E03400F090CF
:100F9D0000A7E0FCA3E0FDA3E0FEA3E0FFC3EC94FB
:100FAD00F4ED9401EE9400EF940040A890007DE0E4
:100FBD0070031201B9900100121ACD758201121B36
:100FCD00EF90007DE0602190007CE070169000A70E
:100FDD00E02401F0A3E03400F0A3E03400F0A3E03E
:100FED003400F0120850800312099E90007CE070CE
:100FFD006790007DE0601B9000A7E0FCA3E0FDA3DF
:10100D00E0FEA3E0FFC374889C74139DE49EE49FEF
:10101D00402390007DE0704090009FE0FCA3E0FD38
:10102D00A3E0FEA3E0FFC3EC9401ED9400EE940069
:10103D00EF94005023120A7D1201DAC2F9C2F8436F
:10104D00870100005387FE12022D90007DE06005A0
:10105D0012015C80031201B9120E59900020740127
:10106D00F0E4A3F090002274E8F07403A3F090363E
:10107D000075F06E74011210F7121C07020FCE22CC
:10108D00AF83E58290001AF0EFA3F090001AE0FE16
:10109D00A3E0FF8E828F83E493A3E493F58222E590
:1010AD008290001CF0E04480FF75C7AA75C7558F6C
:1010BD009F22E58290001DF0E0600543870200004D
:1010CD0022E58290001EF0E06005438701000022BA
:1010DD007F007E7F00DEFD0FBF1A0040F522E58206
:1010ED0090001FF0E024FF92AF22AF82AE83ADF0EF
:1010FD00FC900024EFF0EEA3F0EDA3F0ECA3F05381
:10110D008EF75389F0438901900024E0FCA3E0FDA4
:10111D00A3E0FEA3E0FF9000627440F07442A3F0E0
:10112D00740FA3F0E4A3F08C828D838EF0EF121C6C
:10113D0020AC82AD83AEF0FF900022E0FAA3E0FB7D
:10114D00900073EAF0EBA3F0E4A3F0A3F08C828D92
:10115D00838EF0EF121D7CAC82AD83AEF0FF90005C
:10116D0062740CF0E4A3F0A3F0A3F08C828D838E57
:10117D00F0EF121C20AC82AD83AEF0FF8C0374FF38
:10118D00C39BFB74FFC39C74FF9DFDE49EE49F8D88
:10119D0007900020E0FDA3E0FEED4E60148B8A8FDA
:1011AD008CD28C108D0280FBC28C1DBDFF011E8068
:1011BD00E822AF82AE83ADF0FC90002CEFF0EEA3F1
:1011CD00F0EDA3F0ECA3F0538EEF53890F4389108C
:1011DD0090002CE0FCA3E0FDA3E0FEA3E0FF900057
:1011ED00627440F07442A3F0740FA3F0E4A3F08C8A
:1011FD00828D838EF0EF121C20AC82AD83AEF0FF9A
:10120D0090002AE0FAA3E0FB900073EAF0EBA3F064
:10121D00E4A3F0A3F08C828D838EF0EF121D7CACD5
:10122D0082AD83AEF0FF900062740CF0E4A3F0A3E6
:10123D00F0A3F08C828D838EF0EF121C20AC82AD6A
:10124D0083AEF0FF8C0374FFC39BFB74FFC39C74D0
:10125D00FF9DFDE49EE49F8D07900028E0FDA3E037
:10126D00FEED4E60148B8B8F8DD28E108F0280FB16
:10127D00C28E1DBDFF011E80E822AF82AE83ADF090
:10128D00FC900038EFF0EEA3F0EDA3F0ECA3F075B9
:10129D009100900030E0FEA3E0FF8E048F05BC01AD
:1012AD0005BD00028038BC0405BD00028035BC10B0
:1012BD0005BD00028035BC2005BD00028035BC4057
:1012CD0005BD00028035BC8005BD00028035BC0027
:1012DD0005BD01028035BC0040BD023D803553C9BE
:1012ED008F803653C98F43C910802E53C98F43C980
:1012FD0020802653C98F43C930801E53C98F43C9DF
:10130D0040801653C98F43C950800E53C98F43C9AE
:10131D0060800653C98F43C970C2C843C98043C991
:10132D0004900038E0FAA3E0FBA3E0FCA3E0FD90FD
:10133D0000627440F07442A3F0740FA3F0E4A3F0C4
:10134D008A828B838CF0EDC007C006121C2085822B
:10135D002985832A85F02BF52C900034E0F8A3E045
:10136D00F9A3E0FCA3E0FD900073E8F0E9A3F0EC35
:10137D00A3F0EDA3F0852982852A83852BF0E52C3A
:10138D00121D7CAA82AB83ACF0FDD006D007900075
:10139D0062EEF0EFA3F0E4A3F0A3F08A828B838CCE
:1013AD00F0ED121C20AC82AD83AEF0FF8C03C3E4D4
:1013BD009BFBE4C39CE49DFD74019EE49F8D07900F
:1013CD000032E0FDA3E0FEED4E60148BCC8FCDD24C
:1013DD00CA10CF0280FBC2CA1DBDFF011E80E822CC
:1013ED00AF82AE83ADF0FC900043EFF0EEA3F0EDD5
:1013FD00A3F0ECA3F075910090003CE0FFBF01025B
:10140D008023BF02028023BF04028026BF08028012
:10141D0029BF1002802CBF2002802FBF40028032D6
:10142D00BF803D803553C4F8803653C4F843C401A2
:10143D00802E53C4F843C402802653C4F843C4031A
:10144D00801E53C4F843C404801653C4F843C40526
:10145D00800E53C4F843C406800653C4F843C40732
:10146D00900043E0FBA3E0FCA3E0FDA3E0FE9000B1
:10147D00627440F07442A3F0740FA3F0E4A3F08BF8
:10148D00828C838DF0EEC007121C2085822D858302
:10149D002E85F02FF53090003FE0F8A3E0F9A3E0A2
:1014AD00FAA3E0FE900073E8F0E9A3F0EAA3F0EEF2
:1014BD00A3F0852D82852E83852FF0E530121D7CBE
:1014CD00AB82AC83ADF0FED007900062EFF0E4A3E9
:1014DD00F0A3F0A3F08B828C838DF0EE121C20AC68
:1014ED0082AD83AEF0FF8C03C3E49BFBE4C39CE4AD
:1014FD009DFD74019EE49F8D0790003DE0FDA3E0EE
:10150D00FEED4E6068A2AF9200C2AF75C7AA75C757
:10151D0055759100A20092AF53C4EF8BC58FC6A233
:10152D00AF9200C2AF75C7AA75C755759100A200DD
:10153D0092AF43C408E5C430E4FBA2AF9200C2AF42
:10154D0075C7AA75C755759100A20092AF53C4EF28
:10155D00A2AF9200C2AF75C7AA75C755759100A20B
:10156D000092AF53C4F71DBDFF011E8094A2AF9230
:10157D0000C2AF75C7AA75C755759100A20092AF8D
:10158D0053C4F722AF83E582900047F0EFA3F0102C
:10159D00990280FB900047E0FEA3E08E997F008EBC
:1015AD00828F83223098FD900049E599F0C2989082
:1015BD000049E0F58222E58290004AF0A2AF920048
:1015CD00C2AF75C7AA75C755439F01A20092AF75EB
:1015DD00910090004AE0FFBF0602800ABF0702801B
:1015ED000ABF080F800A75A638800875A6308003DB
:1015FD0075A63075A70075AF04A2AF9200C2AF7586
:10160D00C7AA75C75543A401A20092AFAEAEE5A619
:10161D0004F5A6A2AF9200C2AF75C7AA75C7554310
:10162D00A401A20092AFADAEBF080280030216C5A1
:10163D008E07EF2FFF8D0474015C2FFF74C05FFCCC
:10164D00743F5FFBEF24F2FF90004BF075AF0C750C
:10165D00A60175A700A2AFC2AFA2AF9200C2AF752F
:10166D00C7AA75C75543AA40A20092AF75C7AA7500
:10167D00C75543A401A20092AF744BB5AE02800CC6
:10168D007452B5AE0280057453B5AE24BB0F005035
:10169D0018BC40028008BC80028003BCC0128F04BD
:1016AD00EC24F290004BF08007EF24FC90004BF0FF
:1016BD0090004BE0FFC313FE75C7AA75C7558E8406
:1016CD0075C7AA75C7558D85A2AF9200C2AF75C7F4
:1016DD00AA75C755539FFEA20092AF22E5829000D6
:1016ED004CF0E0FFBF0202800ABF03028013BF046B
:1016FD005680297582021217557582021217C48001
:10170D00467582031217C4A2AF9200C2AF75C7AA65
:10171D0075C7555397DFA20092AF802B75820212C9
:10172D0017557582021217C47582041217557582EA
:10173D00041217C4A2AF9200C2AF75C7AA75C755E0
:10174D005397DFA20092AF22E58290004DF0E0FFAB
:10175D00BF02028005BF042A801AA2AF9200C2AF59
:10176D0075C7AA75C755439720A20092AFE596207D
:10177D00E51080F975C7AA75C7554397C0E5963032
:10178D00E3FB22E58290004EF0759100E0FFBF0271
:10179D00028005BF04208015A2AF9200C2AF75C7AD
:1017AD00AA75C7555397DFA20092AF800975C7AAD6
:1017BD0075C75553973F22E58290004FF075910004
:1017CD00A2AF9200C2AF90004FE0FFBF0202800AAD
:1017DD00BF0302802DBF04658050A2AF9200C2AF3F
:1017ED0075C7AA75C7555396FBA20092AFA2AF92CB
:1017FD0000C2AF75C7AA75C7555396FDA20092AF2B
:10180D00803BA2AF9200C2AF75C7AA75C75543966C
:10181D0004A20092AFA2AF9200C2AF75C7AA75C75E
:10182D00555396FDA20092AF8013A2AF9200C2AFA6
:10183D0075C7AA75C755439608A20092AFA200922C
:10184D00AF22AF82AE83ADF0FC900057EFF0EEA368
:10185D00F0EDA3F0ECA3F0900052E0FF600FBF019C
:10186D0003021903BF02030219AE021A3D75985007
:10187D00438920438780438E10A2AF9200C2AF757B
:10188D00C7AA75C755759100A20092AF53C4DF90DA
:10189D000057E0FCA3E0FDA3E0FEA3E0FFEDC4CC08
:1018AD00C4540F6CCC540FCC6CCCFDEEC454F04D25
:1018BD00FDEFC4CEC4540F6ECE540FCE6ECEFF903E
:1018CD000053E0F8A3E0F9A3E0FAA3E0FB90006277
:1018DD00E8F0E9A3F0EAA3F0EBA3F08C828D838E00
:1018ED00F0EF121C20AC82AD83AEF0FFC3E49CF58B
:1018FD008DD28E021A3D75985043878053C4F8A23D
:10190D00AF9200C2AF75C7AA75C755759100A200F9
:10191D0092AF43C420900057E0FCA3E0FDA3E0FE8E
:10192D00A3E0FFEDC4CCC4540F6CCC540FCC6CCCE5
:10193D00FDEEC454F04DFDEFC4CEC4540F6ECE5425
:10194D000FCE6ECEFF900053E0F8A3E0F9A3E0FABE
:10195D00A3E0FB900062E8F0E9A3F0EAA3F0EBA3AB
:10196D00F08C828D838EF0EF121C20AC82AD83AE95
:10197D00F0FFE4C39CF8E49DF974019EFAE49FFB2B
:10198D0089C6C3E49CFC8CC5A2AF9200C2AF75C7DB
:10199D00AA75C755759100A20092AF43C408021AEB
:1019AD003D75F85075C480900057E0FCA3E0FDA391
:1019BD00E0FEA3E0FFEDC4CCC4540F6CCC540FCCAF
:1019CD006CCCFDEEC454F04DFDEFC4CEC4540F6E7F
:1019DD00CE540FCE6ECEFF900053E0F8A3E0F9A3E6
:1019ED00E0FAA3E0FB900062E8F0E9A3F0EAA3F0CF
:1019FD00EBA3F08C828D838EF0EF121C20AC82ADA8
:101A0D0083AEF0FFE4C39CF8E49DF974019EFAE403
:101A1D009FFB89C6C3E49CFC8CC5A2AF9200C2AFEC
:101A2D0075C7AA75C755759100A20092AF43C4083A
:101A3D0022E58290005BF090005CE4F090005BE0AA
:101A4D00FF6005BF011A800D3098FD90005CE5998F
:101A5D00F0C298800B30F8FD90005CE59AF0C2F86A
:101A6D0090005CE0F58222E58290005EF0C2AC90C1
:101A7D00005EE0FF6005BF0118800B90005DE0F592
:101A8D009910990D80FB90005DE0F59A10F9028098
:101A9D00FBD2AC2253B1BF53B2BF900052E4F090D1
:101AAD000053F074C2A3F07401A3F0E4A3F09036D8
:101ABD000075F06E740112184FD299D201C2AC228A
:101ACD00AF83E58290005FF0EFA3F0759100A2AFB8
:101ADD009200C2AF90005FE0FEA3E0FFBE0105BF24
:101AED000002803DBE0405BF00028041BE0805BF57
:101AFD000002804DBE1005BF00028059BE2005BFFB
:101B0D0000028065BE4005BF00028071BE8006BF29
:101B1D000003021B9EBE0006BF0103021BB2021B87
:101B2D00C475C7AA75C75553AAF8021BC475C7AAB1
:101B3D0075C75553AAF875C7AA75C75543AA01802D
:101B4D007675C7AA75C75553AAF875C7AA75C7552F
:101B5D0043AA02806275C7AA75C75553AAF875C7FF
:101B6D00AA75C75543AA03804E75C7AA75C75553A5
:101B7D00AAF875C7AA75C75543AA04803A75C7AAAE
:101B8D0075C75553AAF875C7AA75C75543AA0580D9
:101B9D002675C7AA75C75553AAF875C7AA75C7552F
:101BAD0043AA06801275C7AA75C75553AAF875C7FB
:101BBD00AA75C75543AA07A20092AFA2AF9200C261
:101BCD00AF75C7AA75C75543AA10A20092AFA2AFB1
:101BDD009200C2AF75C7AA75C75543AA80A20092DD
:101BED00AF22E582900061F0E0FF6005BF010A8041
:101BFD0005539BEF8003439B1022A2AF9200C2AF0F
:101C0D0075C7AA75C75543AA40A20092AFE5AA2091
:101C1D00E6FB22AF82AE83ADF0FC900066EFF0EEF6
:101C2D00A3F0EDA3F0ECA3F090006AE4F0A3F0A311
:101C3D00F0A3F0900062E0FCA3E0FDA3E0FEA3E0C2
:101C4D00FF7B20C003900066E0F8A3E0F9A3E0FA63
:101C5D00A3E0FB90006E235401F0E828F8E933F976
:101C6D00EA33FAEB33FB900066E8F0E9A3F0EAA360
:101C7D00F0EBA3F090006AE0F8A3E0F9A3E0FAA37B
:101C8D00E0FBE828F8E933F9EA33FAEB33FB90008F
:101C9D006AE8F0E9A3F0EAA3F0EBA3F0D00390001B
:101CAD006EE0600890006AE043E001F090006AE0A9
:101CBD00F531A3E0F532A3E0F533A3E0F534C3E548
:101CCD00319CE5329DE5339EE5349F401F90006ABF
:101CDD00E531C39CF0E5329DA3F0E5339EA3F0E51D
:101CED00349FA3F0900066E043E001F01BEB60032E
:101CFD00021C50900066E0FCA3E0FDA3E0FEA3E013
:101D0D008C828D838EF022AF83E582900071F0EF8F
:101D1D00A3F0900071E0FEA3E0FF30E709C3E49E5D
:101D2D00FCE49FFD80048E048F0590006FE0FEA300
:101D3D00E0FF30E709C3E49EFAE49FFB80048E02C6
:101D4D008F03900077EAF0EBA3F08C828D83121D48
:101D5D00E8AE82AF83900071E0A3E030E70CC3E4FE
:101D6D009EFCE49FFD8C828D83228E828F8322A820
:101D7D0082A983AAF0FB88F0900073E0A4FCADF07B
:101D8D0089F0E0A42DFDE435F0FE88F0A3E0A42D4C
:101D9D00FDE5F03EFEE433FF89F0E0A42EFEE5F014
:101DAD003FFF88F0A3E0A42EFEE5F03FFF8AF09000
:101DBD000073E0A42EFEE5F03FFF8BF0E0A42FFFB3
:101DCD008AF0A3E0A42FFF89F0A3E0A42FFF88F0F1
:101DDD00A3E0A42F8EF08D838C8222AF83E58290B9
:101DED000079F0EFA3F090007BE4F0900079E0FE35
:101DFD00A3E0FF7D00900077E0FBA3E0FC235401FE
:101E0D00FA7036EB2BFBEC33FC900077EBF0ECA388
:101E1D00F0900077E0FBA3E0FCC3EE9BEF9C50112C
:101E2D00ECC313CB13CBFC900077EBF0ECA3F0805D
:101E3D00080D90007BEDF080BC90007BE0FF9000E2
:101E4D0079E0FDA3E0FE900077E0FBA3E0FCC3ED9D
:101E5D009BEE9C400B900079EDC39BF0EE9CA3F0A4
:101E6D00900077E0FDA3E0C313CD13CDFE90007776
:101E7D00EDF0EEA3F08F061FEE70C3900079E0FE3B
:0B1E8D00A3E08E82F583227582002204
:101E980000000087365A5A0036000000002D0087DF
:101EA800002D2D002D2D0000000101000100000073
:101EB800000101000000000100010108010101000A
:041EC8000901060204
:101ECC000000010000000000000000000000000005
:101EDC0000000000000000000000000000000000F6
:101EEC0000000000000000000000000000000000E6
:051EFC000000000000E1
:04000003000000DA1F
:00000001FF
