:100000000200813200000000000000320000000009
:10001000000000320000000000000032000000007C
:10002000000000320000000000000032000000006C
:10003000000000320000000000000002041C00006C
:10004000000000320000000000000032000000004C
:10005000000000320000000000000032000000003C
:10006000000000320000000000000032000000002C
:1000700000000032000000000000000203790212BC
:01008000BCC3
:0100210000DE
:0300810075813056
:0A008400121DD5E582600302007E24
:10008E007936E94400601B7A01901E0D786C75A0DC
:10009E0000E493F2A308B8000205A0D9F4DAF275D1
:0200AE00A0FFB1
:1000B000E478FFF6D8FD7800E84400600A7901751D
:1000C000A000E4F309D8FC786BE84400600C7901E7
:0A00D000900001E4F0A3D8FCD9FA77
:0300DA0002007EA3
:1000DD00AF82AE83ADF0FC900005EFF0EEA3F0ED36
:1000ED00A3F0ECA3F0538EF75389F04389019000F0
:1000FD0005E0FCA3E0FDA3E0FEA3E0FF9000527439
:10010D0040F07442A3F0740FA3F0E4A3F08C828D41
:10011D00838EF0EF121B61AC82AD83AEF0FF9000C9
:10012D0003E0FAA3E0FB90005FEAF0EBA3F0E4A399
:10013D00F0A3F08C828D838EF0EF121C55AC82AD46
:10014D0083AEF0FF900052740CF0E4A3F0A3F0A383
:10015D00F08C828D838EF0EF121B61AC82AD83AE7D
:10016D00F0FF8C0374FFC39BFB74FFC39C74FF9D56
:10017D00FDE49EE49F8D07900001E0FDA3E0FEED00
:10018D004E60148B8A8F8CD28C108D0280FBC28CAA
:10019D001DBDFF011E80E822E582900009F0E09070
:1001AD000047F07582011219C6900001740AF0E43F
:1001BD00A3F0900003740AF0E4A3F090360075F0FC
:1001CD006E74011200DD22AF82AE83ADF0FC9000A3
:1001DD000AEFF0EEA3F0EDA3F0ECA3F090000AE02F
:1001ED00FCA3E0FDA3E0FEA3E0FF90000AE0F5F024
:1001FD00A3E042F0A3E042F0A3E045F07009758260
:10020D00301201A502034B90000E740AF0E4A3F026
:10021D00A3F0A3F090000EE0F8A3E0F9A3E0FAA399
:10022D00E0FBC3EC98ED99EE9AEF9B403E90005F9A
:10023D00E8F0E9A3F0EAA3F0EBA3F090000AE4F5EF
:10024D00F0C007C006C005C004121C55A882A983C2
:10025D00AAF0FBD004D005D006D00790000EE8F030
:10026D00E9A3F0EAA3F0EBA3F080A990000EE0FC67
:10027D00A3E0FDA3E0FEA3E0FFC374019CE49DE4B5
:10028D009EE49F400302034B900052740AF0E4A3D6
:10029D00F0A3F0A3F08C828D838EF0EF121B61AC76
:1002AD0082AD83AEF0FF90000EECF0EDA3F0EEA367
:1002BD00F0EFA3F090000EE0FCA3E0FDA3E0FEA3A1
:1002CD00E0FF90000AE0F522A3E0F523A3E0F5247A
:1002DD00A3E0F525900052ECF0EDA3F0EEA3F0EFC6
:1002ED00A3F08522828523838524F0E525C007C0F0
:1002FD0006C005C004121B61A882743028F5821255
:10030D0001A5D004D005D006D007900049ECF0ED42
:10031D00A3F0EEA3F0EFA3F085228285238385243D
:10032D00F0E525121A21AC82AD83AEF0FF90000AE4
:10033D00ECF0EDA3F0EEA3F0EFA3F0020278225360
:10034D00B3BF53B4BF90006DE0702090003C7402B9
:10035D00F090003D7480F07425A3F0E4A3F0A3F0B9
:10036D0090360075F06E74011217A122C021C0E005
:10037D00C0F0C082C083C007C006C005C004C00362
:10038D00C002C001C000C0D075D000C09130F83798
:10039D0090008CE02412F582E43400F583E59AF0A8
:1003AD0090008CE0FF7E000FBF00010E9000637483
:1003BD0010F0E4A3F08F828E83121CC1AE82AF8346
:1003CD0090008CEEF0C2F810F9028000D091D0D0E0
:1003DD00D000D001D002D003D004D005D006D00774
:1003ED00D083D082D0F0D0E0D0213290003C740286
:1003FD00F090003D7480F07425A3F0E4A3F0A3F019
:10040D0090360075F06E74011217A1439C0122C045
:10041D00E0C0F0C082C083C09190008FE0F5F0A3E2
:10042D00E042F0A3E042F0A3E045F0700D90008FA4
:10043D007401F0E4A3F0A3F0A3F053ECFBD091D042
:10044D0083D082D0F0D0E03243B10453B2FBD282DC
:10045D0075E90043E91043EA0443EB04439B022290
:10046D002222900077E4F0900080F0A3F0A3F0A397
:10047D00F07E007F00C3EE9402EF648094805025DF
:10048D00EE2EFCEF33FDEC2CFCED33FDEC2478F57A
:10049D0082ED3400F583E4F0A3F0A3F0A3F00EBEDB
:1004AD0000D30F80D090006E7401F022D2AF43E1E3
:1004BD003043E20E43B14053B2BF538EBF53DFF80A
:1004CD0085DFDF43DE1053B1FD43B202A2AF9200D0
:1004DD00C2AF75C7AA75C755759101A20092AF43FA
:1004ED00C604A2AF9200C2AF75C7AA75C755759164
:1004FD0000A20092AF53B1DF43B220C2DFA2AF9290
:10050D0000C2AF75C7AA75C755759101A20092AF0C
:10051D0075D10075D9FF75DC0075D40075CC0075EB
:10052D00C400A2AF9200C2AF75C7AA75C755759129
:10053D0000A20092AFD2DF900075E4F0900076F04B
:10054D0012046D12046F90006FE4F0A3F022A2AFBD
:10055D009200C2AF75C7AA75C755759100A20092DA
:10056D00AF53E1FE53E8F043E80643B10853B2F749
:10057D0075F60043F640A2AF9200C2AF75C7AA75DB
:10058D00C755759100A20092AF43E101A2AF920051
:10059D00C2AF75C7AA75C755759100A20092AFC2BB
:1005AD00EFA2AF9200C2AF75C7AA75C7557591007E
:1005BD00A20092AFD2EE30EFFDAEC3E4C454F0CE44
:1005CD00C4CE6ECE54F0CE6EFFACC253040F7D0080
:1005DD00EE4204EF4205900084ECF0EDA3F0A2AFE3
:1005ED009200C2AF75C7AA75C755759100A200924A
:1005FD00AF53E1FEA2AF9200C2AF75C7AA75C75542
:10060D00759100A20092AF53E1FE53E8F043E80567
:10061D0043B11053B2EF75F60043F620A2AF92002E
:10062D00C2AF75C7AA75C755759100A20092AF43A9
:10063D00E101A2AF9200C2AF75C7AA75C7557591FA
:10064D0000A20092AFC2EFA2AF9200C2AF75C7AACF
:10065D0075C755759100A20092AFD2EE30EFFDAE89
:10066D00C3E4C454F0CEC4CE6ECE54F0CE6EFFAC07
:10067D00C253040F7D00EE4204EF4205900086EC5C
:10068D00F0EDA3F0A2AF9200C2AF75C7AA75C75522
:10069D00759100A20092AF53E1FE22A2AF9200C26B
:1006AD00AF75C7AA75C755759100A20092AF53E1FA
:1006BD00FE53E8F043E80343B14053B2BF75F60073
:1006CD0043F608A2AF9200C2AF75C7AA75C755759C
:1006DD009100A20092AF43E101A2AF9200C2AF75AB
:1006ED00C7AA75C755759100A20092AFC2EFA2AF10
:1006FD009200C2AF75C7AA75C755759100A2009239
:10070D00AFD2EE30EFFDAEC3E4C454F0CEC4CE6E26
:10071D00CE54F0CE6EFFACC253040F7D00EE4204FA
:10072D00EF4205900080E0FAA3E0FBA3E0FEA3E01A
:10073D00FF8C008D017C007D00900080E82AF0E99F
:10074D003BA3F0EC3EA3F0ED3FA3F0A2AF9200C2AD
:10075D00AF75C7AA75C755759100A20092AF53E149
:10076D00FE22E582900022F0E0FFC2D575F002EF87
:10077D0030E704B2D5F404A430D50AF42401C5F051
:10078D00F43400C5F024D9FE741D35F0FF8E828F30
:10079D0083E49360067E017F0080047E007F008EDF
:1007AD008222E582900023F0900077E0FFE0603C2C
:1007BD00900023E075F004A42478F582740035F0E0
:1007CD00F583E0FBA3E0FCA3E0FDA3E0FE90005267
:1007DD00EFF0E4A3F0A3F0A3F08B828C838DF0EE09
:1007ED00121B61AC82AD83AEF0FF801A900023E046
:1007FD0075F002A42484F582740035F0F583E0FED3
:10080D00A3E08E82F58322E582900025F0E0FF249F
:10081D00F9FDE4341DFE8D828E83E493700302098D
:10082D0010900088E0FDA3E0FE8D038E04C374805C
:10083D009B740C9C4003020910C374169B740D9C91
:10084D005023EF75F002A424D9FB741D35F0FC90F4
:10085D000024E0FA2BF582E43CF583E493C313FC0A
:10086D00F582020930EF75F002A424D9FC741D3510
:10087D00F0FF900024E02CF582E43FF583E493FF34
:10088D00E4FCFBFA7416C39DFD740D9EFE90005F93
:10089D00EDF0EEA3F0E4A3F0A3F08F828C838BF048
:1008AD00EAC007C004C003C002121C55A882A98368
:1008BD00ADF0FE9000527496F0E4A3F0A3F0A3F017
:1008CD00888289838DF0EE121B61A882A983D002E4
:1008DD00D003D004D007ECC313CF13CFFC8805E9A8
:1008ED00C313CD13CDC313CD13CDFEED2FFFE9C42F
:1008FD00C8C4540F68C8540FC868C8F9E82FFFF56D
:10090D00828020900025E075F002A424D9FE741D8C
:10091D0035F0FF900024E0FD2EF582E43FF583E4F1
:10092D0093F58222E582900026F0E0FF90006CE0C6
:10093D00FEEFB50603020AE8EF24F65003020AE8BB
:10094D00EF2403FDE4341EFE8D828E83E493700349
:10095D00020AE87D007E00C3ED9402EE648094806F
:10096D004003020A2A900024EDF08F82C007C006D2
:10097D00C005120814AC82D005D006D0078C027BBE
:10098D0000EC7027ED2DF9EE33FCE92471F582ECC6
:10099D003400F583E0F9A3E0FC49600FED2475F513
:1009AD0082EE3400F5837401F0806A8D048C82C070
:1009BD0007C006C005C004C003C0021207AFA8825D
:1009CD00A983D002D003D004D005D006D007C3E848
:1009DD009AE99B500FED2475F582EE3400F5837482
:1009ED0002F080318C82C007C006C005C003C00272
:1009FD001207AFA982AC83D002D003D005D006D0A8
:100A0D0007C3EA99EB9C500DED2475F582EE340089
:100A1D00F5837403F00DBD00010E02096412046F1D
:100A2D007E007F00C3EE9402EF648094805013EE3D
:100A3D00248AF582EF3400F583E4F00EBE00E50F55
:100A4D0080E290006CE06070900026E0FFE060684E
:100A5D00EF75F002A4FEAFF07C007D00C3EC9402B4
:100A6D00ED64809480505190006CE075F002A424E8
:100A7D00D9FA741D35F0FBEC2AFAED3BFB8A828B1B
:100A8D0083E493702CEE24D9FAEF341DFBEC2AFA93
:100A9D00ED3BFB8A828B83E4936016EC2CFAED33ED
:100AAD00FBEA2471F582EB3400F583743CF0E4A38A
:100ABD00F00CBC00A70D80A4900026E090006CF017
:100ACD007582431201A590006CE0FF7E007D007CD5
:100ADD00008F828E838DF0EC1201D42290006CE099
:100AED00901E0393F5821209312290008EE0FFC310
:100AFD0074808FF063F08095F0500C90008E74FF31
:100B0D00F07582211201A590008CE0FF90008DE020
:100B1D00FEEFB50603020C5CEE2412F582E4340000
:100B2D00F583E0900027F07F000EBE00010F9000CE
:100B3D00637410F0E4A3F08E828F83121CC1AE8219
:100B4D0090008DEEF0900097E4F0A3F0A3F0A3F0E9
:100B5D00900027E0FFF582C0071201A5D007BF0A5C
:100B6D00028046BF3003020BEFBF3103020C1FBFE3
:100B7D003203020C1FBF3303020C1FBF3403020CE0
:100B8D001FBF3503020C1FBF3603020C1FBF3902F6
:100B9D00806ABF61028025BF69028029BF73028010
:100BAD002DBF75028031020B1490009BE4F0900074
:100BBD006CE02461F5821201A5020B1490009B7468
:100BCD0001F0020B1490009B7403F0020B149000C3
:100BDD009B7402F0020B1490006D7401F07582018C
:100BED00807090009BE0FFBF01028003020B149008
:100BFD001E03E493F582120931020B1490009BE061
:100C0D00FFBF01028003020B14758200120931022D
:100C1D000B1490009CE4F090009BE0FFBF0202805B
:100C2D0016BF03028003020B14900027E024D0F5B9
:100C3D0082120931020B14900027E0FFBF340040EF
:100C4D0003020B1474D62FF582120931020B1475A1
:100C5D008200222082687582421201A590008FE0E9
:100C6D002401F0A3E03400F0A3E03400F0A3E0345D
:100C7D0000F0900093E4F0A3F0A3F0A3F090008FA8
:100C8D00E0FCA3E0FDA3E0FEA3E0FFBC900BBD01E3
:100C9D0008BE0005BF00028003020D8C75826C1228
:100CAD0001A590006CE06009758200120931020DFA
:100CBD008C901E03E493F582120931020D8C900085
:100CCD008FE0F5F0A3E042F0A3E042F0A3E045F0A1
:100CDD007003020D8C7582551201A5900093E024CE
:100CED0001F0A3E03400F0A3E03400F0A3E0340001
:100CFD00F0900093E0FCA3E0FDA3E0FEA3E0FFC3B2
:100D0D0074019CE49DE49EE49F507490008FE0FC80
:100D1D00A3E0FDA3E0FEA3E0FFC3EC9490ED9401EE
:100D2D00EE9400EF9400502690006CE0603C7582CC
:100D3D004E1201A590006CE0FF7E007D007C008FBF
:100D4D00828E838DF0EC1201D4120AE9801C75821B
:100D5D004D1201A590008FE0FCA3E0FDA3E0FEA3E2
:100D6D00E08C828D838EF01201D4900093E4F0A379
:100D7D00F0A3F0A3F090008FF0A3F0A3F0A3F02266
:100D8D00C2DFA2AF9200C2AF75C7AA75C7557591E4
:100D9D0001A20092AF75DC0075D40075CC0075C44E
:100DAD0000A2AF9200C2AF75C7AA75C75575910065
:100DBD00A20092AFD2DF22C2DFA2AF9200C2AF7506
:100DCD00C7AA75C755759101A20092AF900071E049
:100DDD00F5DC900073E0F5CCA2AF9200C2AF75C701
:100DED00AA75C755759100A20092AFD2DF2290006F
:100DFD0028E4F07E007F00C3EE9402EF64809480BF
:100E0D004003021011EE2475FCEF3400FD8C828D31
:100E1D0083E0FBBB0102800EBB02028063BB0303B8
:100E2D00020F49021009EE2EFAEF33FBEA2471FA94
:100E3D00EB3400FB8A828B83E0F8A3E0F948602253
:100E4D00C006C0079000287401F0E824FFFEE934C5
:100E5D00FFFF8A828B83EEF0EFA3F0D007D006025E
:100E6D001009E84970098C828D83E4F00210099015
:100E7D0000287401F08A828B83E4F0A3F00210093C
:100E8D00C004C005EE2EFAEF33FBEA2484F582EBA5
:100E9D003400F583E0F8A3E0F990006CE075F00202
:100EAD00A424D9FC741D35F0FDEE2CF582EF3DF533
:100EBD0083E493FD7C00C3E89DE99CD005D00450EC
:100ECD0055EE248AF582EF3400F583E4F090002886
:100EDD0004F0EA2471FAEB3400FB8A828B83E0F88C
:100EED00A3E0F9C006C00788068907C3EE94BEEFDC
:100EFD009400D007D006501108B80001098A828BE2
:100F0D0083E8F0E9A3F00210098A828B8374BEF0A6
:100F1D00E4A3F0021009EE248AFAEF3400FB8A8272
:100F2D008B83E0F9098A828B83E9F0E924FC400385
:100F3D000210098C828D83E4F0021009C004C005F3
:100F4D00EE2EFAEF33FBEA2484F582EB3400F583C1
:100F5D00E0F8A3E0F990006CE075F002A424D9FC50
:100F6D00741D35F0FDEE2CF582EF3DF583E493FD18
:100F7D007C00C3ED98EC99D005D004505FEE248A27
:100F8D00F582EF3400F583E4F090002804F0EA24B4
:100F9D0071FAEB3400FB8A828B83E0F8A3E0F94809
:100FAD00700A8A828B83E4F0A3F08050C002C003E4
:100FBD0088028903C374BE9AE49BD003D002500CFF
:100FCD008A828B8374BEF0E4A3F0803018B8FF01E1
:100FDD00198A828B83E8F0E9A3F08020EE248AFA47
:100FED00EF3400FB8A828B83E0F9098A828B83E9D7
:100FFD00F0E924FC50068C828D83E4F00EBE0001D6
:10100D000F020E04900028E0F582227E007F00C3BF
:10101D00EE9402EF64809480501BEE2475FCEF3447
:10102D0000FD8C828D83E06005758200800A0EBE06
:10103D0000DD0F80DA75820122900029E4F0900026
:10104D0077E0FF900080E0FBA3E0FCA3E0FDA3E0D0
:10105D00FE900052EFF0E4A3F0A3F0A3F08B828C8E
:10106D00838DF0EE121B61AC82AD83900088ECF0A5
:10107D00EDA3F07E007F00C3EE9402EF64809480B8
:10108D00400302116290006CE0FD8E04900024EC90
:10109D00F08D82C007C006C004120814AD82D004C2
:1010AD00D006D0077B00C3E49D74808BF063F08085
:1010BD0095F0400302115A8C82C007C006C005C0CE
:1010CD00031207AFAA82AC83D003D005D006D00798
:1010DD00ED24FEF8EB34FFF9C3EA98EC995035EEA8
:1010ED002EF8EF33F9E82471F8E93400F9C006C0A1
:1010FD000788828983E0FEA3E0FF0EBE00010F8802
:10110D00828983EEF0EFA3F09000297401F0D007EF
:10111D00D006803974022DFDE43BFBC3ED9AEB9CA8
:10112D00502BEE2EFCEF33FDEC2471FCED3400FD65
:10113D008C828D83E0FAA3E0FB1ABAFF011B8C822F
:10114D008D83EAF0EBA3F09000297401F00EBE0040
:10115D00010F021084900029E0F5822212055B1226
:10116D000DFBE58290002AF0121018E58270030243
:10117D001250900077E02401F07E007F00C3EE94C2
:10118D0002EF648094805069EE2EFCEF33FDEC2C61
:10119D00FCED33FDEC2478FCED3400FD8C828D8369
:1011AD00E0F526A3E0F527A3E0F528A3E0F529EE69
:1011BD002EFAEF33FBEA2484F582EB3400F583E05D
:1011CD00FAA3E0FB8A008B01E4FAFBE82526F8E997
:1011DD003527F9EA3528FAEB3529FB8C828D83E822
:1011ED00F0E9A3F0EAA3F0EBA3F00EBE008F0F80A1
:1011FD008C1206A890006CE024EFFFE4341DFE8FE6
:10120D00828E83E4936013900077E0FFBF01051297
:10121D000D8D8006BF8703120DC4900077E0FFBFD0
:10122D009600401F90006CE024EFFFE4341DFE8F0C
:10123D00828E83E4937009121046E58290002AF0A5
:10124D0012046F90002AE06003120DC42275910004
:10125D00A2AF9200C2AF75C7AA75C75553AAF8754C
:10126D00C7AA75C75543AA07A20092AFA2AF9200B5
:10127D00C2AF75C7AA75C75543AA10A20092AFA2F7
:10128D00AF9200C2AF75C7AA75C75543AA80A20019
:10129D0092AF439B1022A2AF9200C2AF75C7AA7541
:1012AD00C75543AA40A20092AFE5AA20E6FB2275DE
:1012BD00820612151512034C1204B91203F8900090
:1012CD0097E4F0A3F0A3F0A3F0120AF7E5827051B2
:1012DD009000017401F0E4A3F090000374E8F07441
:1012ED0003A3F090360075F06E74011200DD9000CE
:1012FD0097E02401F0A3E03400F0A3E03400F0A364
:10130D00E03400F0900097E0FCA3E0FDA3E0FEA325
:10131D00E0FFC3EC94F4ED9401EE9400EF940040E3
:10132D00A875823A1201A590006DE0700312045564
:10133D007582771201A512125A90009DE0FCA3E070
:10134D00FDA3E0FEA3E0FF90004974C8F0E4A3F014
:10135D00A3F0A3F08C828D838EF0EF121A21AC8254
:10136D00AD83AEF0FFEC4D4E4F70067582541201F9
:10137D00A590009DE02401F0A3E03400F0A3E0343B
:10138D0000F0A3E03400F090006DE0602190006C5F
:10139D00E07016900097E02401F0A3E03400F0A374
:1013AD00E03400F0A3E03400F0120AF78003120CD1
:1013BD006090006CE0FFE0706F9000A17401F09000
:1013CD00006DE0601B900097E0FBA3E0FCA3E0FD47
:1013DD00A3E0FEC374889B74139CE49DE49E40239C
:1013ED0090006DE0704A90008FE0FBA3E0FCA3E05D
:1013FD00FDA3E0FEC3EB9401EC9400ED9400EE949C
:10140D0000502D120D8D12046EC2F9C2F8438701E2
:10141D0000005387FE1204B990006DE060051203C1
:10142D00F8800D1204558008EF60059000A1E4F0DE
:10143D001211699000017401F0E4A3F0900003749F
:10144D00E8F07403A3F090360075F06E740112008D
:10145D00DD9000A1E070087582491201A580067526
:10146D0082571201A51212A302134622AF83E58201
:10147D0090002BF0EFA3F090002BE0FEA3E0FF8E89
:10148D00828F83E493A3E493F58222E58290002D6D
:10149D00F0E04480FF75C7AA75C7558F9F22E5827E
:1014AD0090002EF0E06005438702000022E5829057
:1014BD00002FF0E060054387010000227F007E7F52
:1014CD0000DEFD0FBF1A0040F522E582900030F0DE
:1014DD00E024FF92AF22AF83E582900031F0EFA3BD
:1014ED00F010990280FB900031E0FEA3E08E997F11
:1014FD00008E828F83223098FD900033E599F0C2E3
:10150D0098900033E0F58222E582900034F0A2AF8E
:10151D009200C2AF75C7AA75C755439F01A200922D
:10152D00AF759100900034E0FFBF0602800ABF073F
:10153D0002800ABF080F800A75A638800875A6308C
:10154D00800375A63075A70075AF04A2AF9200C2D7
:10155D00AF75C7AA75C75543A401A20092AFAEAE31
:10156D00E5A604F5A6A2AF9200C2AF75C7AA75C7CE
:10157D005543A401A20092AFADAEBF080280030295
:10158D0016178E07EF2FFF8D0474015C2FFF74C0AB
:10159D005FFC743F5FFBEF24F2FF900035F075AFF9
:1015AD000C75A60175A700A2AFC2AFA2AF9200C283
:1015BD00AF75C7AA75C75543AA40A20092AF75C7AC
:1015CD00AA75C75543A401A20092AF744BB5AE02E4
:1015DD00800C7452B5AE0280057453B5AE24BB0FAA
:1015ED00005018BC40028008BC80028003BCC012B1
:1015FD008F04EC24F2900035F08007EF24FC90006E
:10160D0035F0900035E0FFC313FE75C7AA75C755B9
:10161D008E8475C7AA75C7558D85A2AF9200C2AFCE
:10162D0075C7AA75C755539FFEA20092AF22E582DA
:10163D00900036F0E0FFBF0202800ABF0302801364
:10164D00BF045680297582021216A77582021217E1
:10165D00168046758203121716A2AF9200C2AF759F
:10166D00C7AA75C7555397DFA20092AF802B75821D
:10167D00021216A77582021217167582041216A78A
:10168D00758204121716A2AF9200C2AF75C7AA7564
:10169D00C7555397DFA20092AF22E582900037F035
:1016AD00E0FFBF02028005BF042A801AA2AF92009C
:1016BD00C2AF75C7AA75C755439720A20092AFE573
:1016CD009620E51080F975C7AA75C7554397C0E5F3
:1016DD009630E3FB22E582900038F0759100E0FF33
:1016ED00BF02028005BF04208015A2AF9200C2AFD9
:1016FD0075C7AA75C7555397DFA20092AF800975BC
:10170D00C7AA75C75553973F22E582900039F075EA
:10171D009100A2AF9200C2AF900039E0FFBF02026C
:10172D00800ABF0302802DBF04658050A2AF9200D6
:10173D00C2AF75C7AA75C7555396FBA20092AFA24B
:10174D00AF9200C2AF75C7AA75C7555396FDA200DB
:10175D0092AF803BA2AF9200C2AF75C7AA75C755B5
:10176D00439604A20092AFA2AF9200C2AF75C7AA72
:10177D0075C7555396FDA20092AF8013A2AF92008C
:10178D00C2AF75C7AA75C755439608A20092AFA2FE
:10179D000092AF22AF82AE83ADF0FC900041EFF02E
:1017AD00EEA3F0EDA3F0ECA3F090003CE0FF600F92
:1017BD00BF0103021855BF020302190002198F75EC
:1017CD009850438920438780438E10A2AF9200C268
:1017DD00AF75C7AA75C755759100A20092AF53C4D6
:1017ED00DF900041E0FCA3E0FDA3E0FEA3E0FFEDF0
:1017FD00C4CCC4540F6CCC540FCC6CCCFDEEC45483
:10180D00F04DFDEFC4CEC4540F6ECE540FCE6ECE40
:10181D00FF90003DE0F8A3E0F9A3E0FAA3E0FB9010
:10182D000052E8F0E9A3F0EAA3F0EBA3F08C828D6F
:10183D00838EF0EF121B61AC82AD83AEF0FFC3E47B
:10184D009CF58DD28E02198F75985043878053C4A5
:10185D00F8A2AF9200C2AF75C7AA75C755759100B2
:10186D00A20092AF43C420900041E0FCA3E0FDA391
:10187D00E0FEA3E0FFEDC4CCC4540F6CCC540FCCF0
:10188D006CCCFDEEC454F04DFDEFC4CEC4540F6EC0
:10189D00CE540FCE6ECEFF90003DE0F8A3E0F9A33D
:1018AD00E0FAA3E0FB900052E8F0E9A3F0EAA3F020
:1018BD00EBA3F08C828D838EF0EF121B61AC82ADA9
:1018CD0083AEF0FFE4C39CF8E49DF974019EFAE445
:1018DD009FFB89C6C3E49CFC8CC5A2AF9200C2AF2E
:1018ED0075C7AA75C755759100A20092AF43C4087C
:1018FD0002198F75F85075C480900041E0FCA3E08B
:10190D00FDA3E0FEA3E0FFEDC4CCC4540F6CCC549A
:10191D000FCC6CCCFDEEC454F04DFDEFC4CEC454D1
:10192D000F6ECE540FCE6ECEFF90003DE0F8A3E0CB
:10193D00F9A3E0FAA3E0FB900052E8F0E9A3F0EA86
:10194D00A3F0EBA3F08C828D838EF0EF121B61ACB4
:10195D0082AD83AEF0FFE4C39CF8E49DF974019E63
:10196D00FAE49FFB89C6C3E49CFC8CC5A2AF920030
:10197D00C2AF75C7AA75C755759100A20092AF4346
:10198D00C40822E582900045F0900046E4F09000F6
:10199D0045E0FF6005BF011A800D3098FD900046AF
:1019AD00E599F0C298800B30F8FD900046E59AF06D
:1019BD00C2F8900046E0F58222E582900048F0538F
:1019CD009CFE900048E0FF6005BF0118800B900061
:1019DD0047E0F59910990D80FB900047E0F59A10BE
:1019ED00F90280FB439C012253B1BF53B2BF90005B
:1019FD003CE4F090003DF074C2A3F07401A3F0E458
:101A0D00A3F090360075F06E74011217A1D299D221
:101A1D0001C2AC22AF82AE83ADF0FC90004DEFF071
:101A2D00EEA3F0EDA3F0ECA3F0900051E4F09000E4
:101A3D004DE0FCA3E0FDA3E0FEA3E0FF7B009000E2
:101A4D0049E0F52DA3E0F52EA3E0F52FA3E0F53049
:101A5D00235401FA7074C003E52D252DF8E52E33BE
:101A6D00F9E52F33FAE53033FB900049E8F0E9A3AF
:101A7D00F0EAA3F0EBA3F0900049E0F52DA3E0F51B
:101A8D002EA3E0F52FA3E0F530C3EC952DED952EAB
:101A9D00EE952FEF9530D0035027E530C313F53079
:101AAD00E52F13F52FE52E13F52EE52D13F52D90BE
:101ABD000049F0E52EA3F0E52FA3F0E530A3F0806B
:101ACD00090B900051EBF0021A4B900051E0FF9082
:101ADD00004DE0FBA3E0FCA3E0FDA3E0FE90004978
:101AED00E0F52DA3E0F52EA3E0F52FA3E0F530C32F
:101AFD00EB952DEC952EED952FEE95304017900032
:101B0D004DEBC3952DF0EC952EA3F0ED952FA3F095
:101B1D00EE9530A3F0900049E0FBA3E0FCA3E0FDBF
:101B2D00A3E0C313FEED13FDEC13FCEB1390004982
:101B3D00F0ECA3F0EDA3F0EEA3F08F061FEE708F87
:101B4D0090004DE0FCA3E0FDA3E0FEA3E08C828DB0
:101B5D00838EF022AF82AE83ADF0FC900056EFF095
:101B6D00EEA3F0EDA3F0ECA3F090005AE4F0A3F097
:101B7D00A3F0A3F0900052E0FCA3E0FDA3E0FEA3D0
:101B8D00E0FF7B20C003900056E0F8A3E0F9A3E04E
:101B9D00FAA3E0FB90005E235401F0E828F8E93346
:101BAD00F9EA33FAEB33FB900056E8F0E9A3F0EADB
:101BBD00A3F0EBA3F090005AE0F8A3E0F9A3E0FA4C
:101BCD00A3E0FBE828F8E933F9EA33FAEB33FB90AD
:101BDD00005AE8F0E9A3F0EAA3F0EBA3F0D00390EC
:101BED00005EE0600890005AE043E001F090005A7A
:101BFD00E0F52DA3E0F52EA3E0F52FA3E0F530C31E
:101C0D00E52D9CE52E9DE52F9EE5309F401F900014
:101C1D005AE52DC39CF0E52E9DA3F0E52F9EA3F074
:101C2D00E5309FA3F0900056E043E001F01BEB6020
:101C3D0003021B91900056E0FCA3E0FDA3E0FEA380
:101C4D00E08C828D838EF022A882A983AAF0FB8876
:101C5D00F090005FE0A4FCADF089F0E0A42DFDE470
:101C6D0035F0FE88F0A3E0A42DFDE5F03EFEE43353
:101C7D00FF89F0E0A42EFEE5F03FFF88F0A3E0A47D
:101C8D002EFEE5F03FFF8AF090005FE0A42EFEE50A
:101C9D00F03FFF8BF0E0A42FFF8AF0A3E0A42FFF0D
:101CAD0089F0A3E0A42FFF88F0A3E0A42F8EF08D80
:101CBD00838C8222AF83E582900065F0EFA3F090D4
:101CCD000065E0FEA3E0FF30E709C3E49EFCE49F5E
:101CDD00FD80048E048F05900063E0FEA3E0FF30CD
:101CED00E709C3E49EFAE49FFB80048E028F039004
:101CFD000067EAF0EBA3F08C828D83121D29AE8272
:101D0D00AF83900065E0A3E030E70CC3E49EFCE4F4
:101D1D009FFD8C828D83228E828F8322AF83E582FD
:101D2D00900069F0EFA3F090006BE4F0900069E093
:101D3D00FEA3E0FF7D00900067E0FBA3E0FC2354D1
:101D4D0001FA7036EB2BFBEC33FC900067EBF0ECFB
:101D5D00A3F0900067E0FBA3E0FCC3EE9BEF9C506B
:101D6D0011ECC313CB13CBFC900067EBF0ECA3F09D
:101D7D0080080D90006BEDF080BC90006BE0FF9043
:101D8D000069E0FDA3E0FE900067E0FBA3E0FCC36B
:101D9D00ED9BEE9C400B900069EDC39BF0EE9CA378
:101DAD00F0900067E0FDA3E0C313CD13CDFE9000CE
:101DBD0067EDF0EEA3F08F061FEE70C3900069E0A3
:0C1DCD00FEA3E08E82F5832275820022C6
:101DD90000000087365A5A0036000000002D00879F
:101DE900002D2D002D2D0000000101000100000033
:101DF90000010100000000010001010801010100CA
:041E090009010602C3
:101E0D0000000100000000000000000000000000C4
:101E1D0000000000000000000000000000000000B5
:101E2D0000000000000000000000000000000000A5
:061E3D000000000000009F
:04000003000000DA1F
:00000001FF
